:10000000F87F002011040000573D0000573D00001C
:10001000573D0000573D0000573D0000573D000090
:10002000573D0000573D0000573D0000573D000080
:10003000573D0000573D0000573D0000573D000070
:10004000573D0000573D0000573D0000573D000060
:10040000FFFFFFFFFFFFFFFFFFFFFFFFFEFFFFFFFD
:1004100062B609F013FCFEE780B52C2001F08AFAE1
:100420002D2001F087FA2A2001F084FA2B2001F018
:1004300081FA0C2001F07EFA0D2001F07BFA0820F1
:1004400001F078FA092001F075FA0B2001F072FA38
:100450000A2001F06FFA01BDF8B50024002500273D
:10046000002004000A2C80F2BB8001212C2001F026
:1004700069FB80B2DFF8A417098848434FF47A710A
:1004800090FBF1F0DFF8981721F8140001212D20DE
:1004900001F058FB80B2DFF88417098848434FF415
:1004A0007A7190FBF1F0DFF8781701EB4401888254
:1004B00001212A2001F046FB80B2DFF8601709888D
:1004C00048434FF47A7190FBF1F0DFF8541701EBD9
:1004D0004401088501212B2001F034FB80B2DFF8B4
:1004E0003C17098848434FF47A7190FBF1F0DFF82C
:1004F000301701EB4401888701210C2001F022FB19
:1005000080B2DFF81817098848434FF47A7190FBDE
:10051000F1F0DFF80C1701EB4401A1F850000121C4
:100520000D2001F00FFB80B2DFF8F0160988484378
:100530004FF47A7190FBF1F0DFF8E41601EB44011F
:10054000A1F864000121082001F0FCFA80B2DFF874
:10055000CC16098848434FF47A7190FBF1F0DFF82C
:10056000C01601EB4401A1F878000121092001F037
:10057000E9FA80B2DFF8A416098848434FF47A718B
:1005800090FBF1F0DFF8981601EB4401A1F88C0024
:1005900001210B2001F0D6FA80B2DFF8801609881D
:1005A00048434FF47A7190FBF1F0DFF8741601EBD9
:1005B0004401A1F8A00001210A2001F0C3FA80B291
:1005C000DFF85816098848434FF47A7190FBF1F030
:1005D000DFF84C1601EB4401A1F8B400641C41E7BC
:1005E000002004000A2C80F2AC8000200500092DB8
:1005F00037DADFF82C06142101FB04F1084430F847
:100600001500DFF81C16142202FB04F2114401EB62
:1006100045014988884222D2DFF80406142101FBF3
:1006200004F1084400EB450040880700DFF8F005BE
:10063000142101FB04F1084400EB4500DFF8E0154C
:10064000142202FB04F2114431F815104180DFF846
:10065000D005142101FB04F1084420F815706D1C2D
:10066000C5E70020DFF8B815142202FB04F211449C
:10067000488200200500092D37DADFF8A40514218F
:1006800001FB04F1084400EB45004088DFF89015B9
:10069000142202FB04F2114431F81510884222D2D0
:1006A000DFF87C05142101FB04F1084400EB450050
:1006B00040880700DFF86805142101FB04F10844B5
:1006C00000EB4500DFF85815142202FB04F2114438
:1006D00031F815104180DFF84805142101FB04F1C1
:1006E000084420F815706D1CC5E70020DFF83015B0
:1006F000142202FB04F211444882002005000A2D56
:1007000012DADFF8EC0930F81410DFF814051422BF
:1007100002FB04F2104430F815004118DFF8D0094C
:1007200020F814106D1CEAE7DFF8C40930F8140053
:10073000082190FBF1F0DFF8B81921F81400641CCF
:1007400050E7DFF8AC090088DFF8A8190880DFF867
:10075000A0094088DFF8041B0880DFF8940980882E
:10076000DFF8FC1A0880DFF88809C088DFF8F41A7F
:100770000880DFF87C090089DFF87C190880DFF841
:1007800070094089DFF8E01A0880DFF86409808981
:10079000DFF8D81A0880DFF85809C089DFF8D01AC6
:1007A0000880DFF84C09008ADFF8C81A0880DFF8F3
:1007B0004009408ADFF8C01A0880DFF8A40A0088E0
:1007C00040F27D1188421FDBDFF8900A0088B528CF
:1007D0001ADBDFF8900A0088B52815DBDFF8900AED
:1007E000008840F2911188420EDBDFF87C0A008815
:1007F000B52809DBDFF8800A0088B52804DB012072
:10080000DFF8781A087003E00020DFF8701A08702B
:10081000DFF86C0A4088DFF8681A0880DFF8600AA1
:100820008088DFF85C1A4880DFF8540AC088DFF857
:10083000501A8880DFF8480A0089DFF8441AC88017
:10084000DFF82C0A0088DFF8381A0881DFF8340A4C
:100850000078002838D0DFF8300A90F9000000282E
:1008600032D1DFF81C0A0088DFF8141A4988884260
:100870002AD2DFF80C0A4088DFF8041A89888842F7
:1008800022D2DFF8FC09C088DFF8F4198988884291
:100890001AD2DFF8EC090089DFF8E419C988884228
:1008A00012D2DFF8DC098088DFF8E0190880DFF871
:1008B000DC090088E02803DAE020DFF8D01908809E
:1008C0000120DFF8C4190870DFF890090088DFF80C
:1008D00090190988884211D2DFF888090088DFF86A
:1008E00080190988884204D20020DFF8A419087012
:1008F00016E00120DFF89819087011E0DFF86409AC
:100900000088DFF858190988884205D25FF0FF3067
:10091000DFF87C19087003E00120DFF87419087013
:10092000DFF84C090088DFF840190988884212D2A4
:10093000DFF834090088DFF840190988884204D2BA
:100940000120DFF85019087016E05FF0FF30DFF883
:100950004419087010E0DFF818090088DFF818194A
:100960000988884204D20120DFF82819087003E0C2
:100970000020DFF82019087000200400042C1FDA82
:10098000DFF86C0700EB44004088DFF8641731F8AB
:100990001410884212D2DFF8580730F8140007000C
:1009A000DFF84C0700EB44004088DFF8441721F8DB
:1009B0001400DFF83C0700EB44004780641CDDE7CF
:1009C000DFF82C070089DFF8D0180880DFF8A008CE
:1009D0000088DFF894180988884215D2DFF890085B
:1009E0000088DFF894180988884206D2DFF880086A
:1009F0000088DFF8A81808801BE0DFF87C08008872
:100A0000DFF89818088014E0DFF85C080088DFF849
:100A100068180988884206D2DFF84C080088DFF899
:100A20007C18088005E0DFF850080088DFF86C18B3
:100A30000880DFF838080188092001F02CFADFF877
:100A40001C0801880A2001F026FADFF81408018842
:100A50000B2001F020FADFF80C0801880C2001F0CF
:100A60001AFADFF8100801880D2001F014FADFF8F7
:100A7000F80701880E2001F00EFADFF8F40701886C
:100A80000F2001F008FADFF8F0070188102001F0CC
:100A900002FADFF8C807B0F90010DFF8C807B0F9AC
:100AA00000004118DFF8F8070180DFF8B007B0F95F
:100AB0000010DFF8B007B0F90000091ADFF8E4070A
:100AC0000180DFF8A807B0F90010DFF8A807B0F937
:100AD00000004118DFF8D0070180DFF89007B0F977
:100AE0000010DFF89007B0F90000091ADFF8BC0722
:100AF000018000200600002004000A2C06DADFF83E
:100B0000F00530F814003618641CF6E7052E23DAD9
:100B1000DFF8840A90F9000000281DD1DFF87C0A74
:100B200090F90000032817D0DFF8700A90F9000050
:100B3000042811D0DFF8640A90F9000005280BD0D2
:100B40000120DFF8541A087001F031FA4FF4FA501E
:100B500001F05CFB01F031FADFF804070188DFF8EF
:100B6000FC060088091ADFF8380A0180DFF8F00671
:100B70000188DFF8F0060088091ADFF8280A0180EA
:100B8000DFF8F0060088DFF8E416098888420ED204
:100B9000DFF8D80601884FF47A704143DFF8D406B5
:100BA000008891FBF0F0DFF8981A08800DE0DFF87C
:100BB000C40601884FF47A704143DFF8B00600881C
:100BC00091FBF0F0DFF8781A0880DFF89C060188C6
:100BD00064204143DFF88406008891FBF0F0DFF8E1
:100BE000641A0880DFF89006018864204143DFF82A
:100BF0007406008891FBF0F0DFF84C1A0880DFF8EB
:100C00007006018864204143DFF85406008891FB98
:100C1000F0F0DFF8501C0880F1BD0000A88CFF1F29
:100C20000494FF1F80B5DFF874090078DFF81C1A00
:100C30000870DFF81C0A00680090DFF8180A0168E5
:100C4000009802F0E5F9DFF8101A0880DFF80C0AC6
:100C500090F90000002835D1DFF804060088DFF89D
:100C6000FC150988081840F2673188420ADADFF873
:100C7000F0050088DFF8EC150988081840F26731A4
:100C800088421FDBDFF8D8050088DFF8D015098817
:100C9000401A02F033FA512814DBDFF8C40500884B
:100CA000DFF8C0150988401A02F028FA512809DB3C
:100CB0000120DFF8A8190870DFF894090068DFF850
:100CC00094190860DFF8940990F9000001280AD10E
:100CD000DFF88409008840F2B141884203DB00203C
:100CE000DFF878190870DFF8740990F9000000281F
:100CF00002D001F05CF901E001F05FF9DFF8840552
:100D00000078002840D1DFF8000B90F9000000289F
:100D10003AD1DFF8480990F90000002834D1DFF813
:100D20008805B0F9000040F2BD2188422CDBDFF8D5
:100D30007005B0F9000040F29111884224DBDFF821
:100D40006C05B0F9000046281EDADFF86005B0F93E
:100D5000000010F1450F17DBDFF8F4080068009081
:100D6000DFF8A80A0168009802F052F940F2213138
:100D7000884209DB0120DFF8901A0870DFF8D008FC
:100D80000068DFF88C1A0860DFF87C0A90F9000030
:100D900001281AD1DFF8D4040088C82815DADFF852
:100DA000D4040088C82810DADFF8F804B0F900008D
:100DB0001F2806DADFF8EC04B0F9000010F11E0F6E
:100DC00003DA0020DFF8401A0870DFF8900890F985
:100DD0000000002840F08180DFF82C0A90F9000024
:100DE00000287AD1DFF89C040078002875D1DFF85C
:100DF000A00490F9000000286FD1DFF89C0400885F
:100E0000DFF898140988884267D2DFF890040188D7
:100E1000DFF884040088091A01295EDBDFF8300856
:100E200000680090DFF8E4090168009802F0F0F82B
:100E300040F22131884250DBDFF824040088FA2890
:100E40004BDADFF81C0400885B2846DBDFF8580427
:100E5000B0F90000782840DADFF8F4070068009065
:100E6000DFF8AC090168009802F0D2F840F259218D
:100E7000884232DBDFF8D8070068DFF8EC19086039
:100E8000DFF8F0090078DFF8E41991F90010491E45
:100E9000884204D18E20DFF8D819087003E0502072
:100EA000DFF8CC190870DFF8D009DFF8C819097825
:100EB000405C002809D0DFF8C4090078DFF8C019C9
:100EC00008700020DFF8B41908700120DFF8B419A9
:100ED00008700120DFF8AC130870DFF8A803007871
:100EE000012869D1DFF8A0090078002864D0DFF874
:100EF000B803B0F90000C92805DBDFF8A403B0F996
:100F00000000D3280EDADFF85803008840F25511AC
:100F1000884207DADFF89003B0F9000040F291113F
:100F2000884249DBDFF8280700680090DFF83809BD
:100F30000168009802F06CF840F22D1188423BDB0A
:100F40000020D04908700020DFF83C190870DFF855
:100F500000070068DFF8B4180860DFF81C09DFF844
:100F600014190978405C002813D0DFF8140990F9AF
:100F70000000012803D10220DFF800190870DFF813
:100F8000000990F90000022803D10120DFF8EC18D5
:100F900008700020BC490870DFF8D8080078401CB1
:100FA000DFF8D0180870DFF8CC080078032803DBDE
:100FB0000020DFF8C0180870A8480088A9490988EF
:100FC0000818A74909884018792805DBB048007837
:100FD000DFF8C815087050E0A3480088A4490988C4
:100FE0000818A5490988401865281FDBA248008811
:100FF0000F309D490988884205DA7FF00100DFF84B
:101000009C15087039E0984800880F309A49098883
:10101000884204DA0220DFF8841508702DE0DFF83A
:101020002C060078DFF87415087026E0DFF81C063F
:1010300090F90000042819D0DFF8100690F900009C
:10104000052813D0DFF8040690F9000003280DD01E
:10105000DFF8F80590F9000010F1030F06D0DFF873
:10106000EC050078DFF83415087006E08948007850
:1010700040B24000DFF824150870DFF88C0790F9C3
:10108000000000280ED08948B0F90000012805DBD7
:101090007FF00200DFF80415087003E00320DFF89A
:1010A000FC14087077480078012815D10420DFF877
:1010B000EC1408706A480088B0F5967F0CDADFF807
:1010C000C8070078002807D10520DFF8D014087081
:1010D0000120DFF8B8170870DFF8C00490F90000AD
:1010E000642110FB01F189B2002000F0D4FE01BDA3
:1010F000F093FF1F7296FF1F7696FF1F30B585B0E5
:101100000020ADF80A000020ADF80C000020ADF87A
:101110000800DFF87C07B0F906000400DFF870076C
:10112000C188DFF86C078088091A0D00DFF86407B2
:1011300090F9000001280AD072D3032825D015D3D6
:10114000052840D030D307285BD04BD368E002A8F5
:10115000019003A800900DF10A032A0012B22100A9
:1011600009B2DFF8340701F0CDFF67E002A8019073
:1011700003A800900DF10A032A0012B2210009B25F
:10118000DFF8180701F0BEFF58E002A8019003A89D
:1011900000900DF10A032A0012B2210009B2DFF813
:1011A000000701F0AFFF49E002A8019003A80090FA
:1011B0000DF10A032A0012B2210009B2DFF8E40699
:1011C00001F0A0FF3AE002A8019003A800900DF101
:1011D0000A032A0012B2210009B2DFF8CC0601F09E
:1011E00091FF2BE002A8019003A800900DF10A03E3
:1011F0002A0012B2210009B2DFF8B00601F082FF26
:101200001CE002A8019003A800900DF10A032A0037
:1012100012B2210009B2DFF8980601F073FF0DE069
:1012200002A8019003A800900DF10A032A0012B24F
:10123000210009B2DFF87C0601F064FFBDF90A0065
:101240000A2190FBF1F0DFF870160880BDF8080065
:10125000DFF86816088005B030BD00006096FF1FFB
:101260006496FF1F6296FF1F7096FF1F6696FF1F12
:101270007496FF1F6896FF1F7896FF1F9C96FF1FAE
:10128000CC94FF1FB496FF1F9D96FF1FA68CFF1FD7
:10129000A396FF1FA496FF1F7A96FF1F7C96FF1F41
:1012A0007E96FF1F8096FF1F8296FF1F8496FF1F6A
:1012B0007CB5DFF8DC054088DFF8D4150880DFF85E
:1012C000D0058088DFF8C8154880DFF8C405C088DD
:1012D000DFF8BC158880DFF8E8050088DFF8E41542
:1012E0000988401A02F066F8DFF8DC1502F074F89D
:1012F0000600DFF8CC050088DFF8C8150988081853
:1013000002F058F80100300002F0D2F802F04EF975
:10131000DFF8B8150860DFF8B805008802F05CF95E
:1013200004000D009D4890F90000012808DB200012
:10133000290000F06FFA3230DFF85415C8801AE047
:10134000964890F9000000280AD57FF03106200069
:10135000290000F05FFA361ADFF83405C6800AE08B
:10136000DFF86805016816204143642091FBF0F026
:10137000DFF81C15C880894890F90000032805D0C3
:10138000864890F9000010F1030F0AD1DFF83C0500
:1013900001680C204143322091FBF0F0DFF8F0149B
:1013A000C8807E4890F90000042840F0C380DFF830
:1013B000DC040078002840F0B380DFF8CC0400782B
:1013C000002800F0B780DFF80C050078DFF808157A
:1013D0000870DFF808050088DFF804150988081888
:1013E000562821DBDFF8F8040088DFF8F0140988BC
:1013F000884205D25FF0FF30DFF8D814087019E09A
:10140000DFF8D8040088DFF8D8140988884204D2AD
:101410000120DFF8C01408700CE0DFF8BC0400788D
:10142000DFF8B014087005E0DFF8AC040078DFF8EE
:10143000A4140870DFF89C0490F9000001281FDB59
:10144000DFF830040078DFF8241491F90010491E09
:1014500088420AD1DFF88C04008802F0BDF800F061
:10146000D9F9DFF82C14C8802BE0DFF87804008865
:1014700002F0B2F800F0CEF9DFF81414C88020E0D2
:10148000DFF8F0030078DFF8E41391F90010491E4B
:1014900088420BD1DFF84C04008802F09DF800F080
:1014A000B9F94042DFF8E813C8800AE0DFF83404F5
:1014B000008802F091F800F0ADF94042DFF8D01357
:1014C000C880DFF8B403DFF8AC130978405C00286B
:1014D00030D0DFF8140490F9000000280DD1DFF8B7
:1014E0000C04006801905A48006800900099019827
:1014F00001F08EFDB0F5C87F1CDADFF8840390F9A7
:101500000000012816D1DFF888038088DFF88013F7
:10151000C880DFF8C4030078DFF8B813087009E06A
:10152000DFF8CC03DFF84C13097830F81100DFF84E
:101530006013C880194890F90000052809D1DFF828
:10154000B003DFF83013097830F81100DFF84013EA
:10155000C880DFF83C03B0F9060040F24D418842F4
:1015600004DB40F24C40DFF82813C880DFF820038A
:10157000B0F90600DFF87C13884204DADFF8740360
:10158000DFF80C13C880DFF80803C088010089B2B7
:10159000032000F080FC73BDBF8CFF1FA696FF1FC9
:1015A0006A96FF1F6C96FF1F7FB5DFF8E402B0F963
:1015B00006000400DFF8D802C188DFF8D402808872
:1015C000091A0D0024B2002C03D524B264422DB2B6
:1015D0006D4202A801900DF10A00009003AB2A00B1
:1015E00012B2210009B2DFF8100301F08BFDDFF821
:1015F0000C0390F90000012804D018D303280FD061
:1016000007D314E0BDF90C00642190FBF1F0060053
:1016100012E0BDF90A00642190FBF1F006000BE036
:10162000BDF90800642190FBF1F0060004E0DFF84A
:10163000D002B0F900000600300000B204B070BD66
:101640006E96FF1F8696FF1F8896FF1FA796FF1FA7
:10165000F095FF1FDC93FF1F5E96FF1FA196FF1FF3
:1016600000B583B0DFF89C0290F9000004283DD15A
:101670007E4890F90000401E7E490978884204D1D6
:101680004620DFF88412088003E04120DFF878125A
:101690000880DFF8780200680090734801680098BD
:1016A00001F0B6FCB0F5877F10DA704890F90000C1
:1016B000401E70490978884204D14620DFF848125C
:1016C000088003E04120DFF840120880DFF81802AC
:1016D00090F90000002851D0694890F900000128D5
:1016E0004CD10020DFF82012088047E0DFF8140218
:1016F00090F90000052811D15C4890F90000401EC7
:101700005C490978884204D14620DFF8FC11088042
:1017100034E04120DFF8F01108802FE0DFF8EC0121
:101720000068009039480168009801F071FCB0F53C
:10173000877F11DA4D4890F90000401E4D49097825
:10174000884204D14620DFF8C011088016E041200D
:10175000DFF8B411088011E0DFF8A00190F9000073
:10176000002806D1DFF898010088DFF89C11088076
:1017700004E0FFF719FFDFF890110880DFF890010F
:1017800090F90000002803D04B20DFF87C1108807E
:1017900002F009F8394890F90000022821D1DFF859
:1017A0006C0100680190DFF86C01006800900099FE
:1017B000019801F02DFC41F28831884211DADFF8FE
:1017C0005801808840F2EE21884204DA0020DFF8D8
:1017D0003811088005E0DFF828010088DFF82811BB
:1017E0000880DFF8380190F90000012803D10020BB
:1017F000DFF814110880DFF810010088010089B2B9
:10180000012000F048FB07BDA296FF1FD893FF1FE1
:10181000E093FF1FF8B504000D00DFF80401DFF8C6
:10182000041122002B0001F0F9FF22002B0001F02F
:10183000F5FF06000F00DFF8F000DFF8F0102200DF
:101840002B0001F0EBFF02000B003000390002F02A
:10185000B7F80022DFF8D83002F024F902F0DEF900
:10186000F2BD00008A96FF1FD493FF1FC68CFF1F96
:10187000C58CFF1FB596FF1F0496FF1FC08CFF1F6E
:10188000C18CFF1FA096FF1FB396FF1FB296FF1FCC
:10189000E493FF1FA596FF1FA88100002C84000081
:1018A000B086000034890000B88B00003C8E000038
:1018B000C0900000247F00009096FF1F9296FF1FAB
:1018C0006096FF1F6296FF1F00007AC4EC93FF1F13
:1018D0006496FF1F9E96FF1F9F96FF1F7096FF1F27
:1018E0007896FF1F7496FF1FAB96FF1FF895FF1F9A
:1018F000FC95FF1FB4FBFFFFC8950000A896FF1FD3
:101900008C96FF1FA696FF1F8E96FF1FF095FF1F58
:10191000A196FF1F9893FF1FD894FF1FBF8CFF1F36
:10192000F8C264AA6054723F3F355EBA490C0C405D
:101930000080864038B5040064B225006D11EDB218
:10194000002D02D0012D11D021E0A448006850F0F4
:101950000060A2490860A248006830F09000A049E9
:1019600008609F4800689E49086014E09D48006830
:1019700050F000609B4908609948006830F41040BE
:1019800097490860964800689549086003E033214C
:10199000954802F076F964B22000002800F08980B2
:1019A000012800F08680032800F0838008284ED0AC
:1019B000092851D00A2854D00B2857D00C285AD0C7
:1019C0000D285DD00E2860D00F2863D0102870D06D
:1019D000112864D0122867D013286AD0142868D040
:1019E0001A2866D01D2864D01E2862D0202861D015
:1019F00021285FD023285DD024285CD025285FD003
:101A0000262862D0272865D0282868D029286BD0BE
:101A10002A286ED02B2871D02C2874D02D2877D06E
:101A20002E287AD02F287DD0302800F085803128CC
:101A30007DD0322800F0808033287DD034287BD0C0
:101A40003A2879D03D2877D03E2875D075E000211E
:101A5000202002F0ABF974E00021212002F0A6F969
:101A60006FE00021072002F0A1F96AE000210820C0
:101A700002F09CF965E00021222002F097F960E075
:101A80000021232002F092F95BE00021402002F0C7
:101A90008DF956E00021412002F088F951E0002143
:101AA000982002F083F94CE00021992002F07EF9A1
:101AB00047E046E045E00021802002F077F940E071
:101AC0000021812002F072F93BE00021822002F027
:101AD0006DF936E00021832002F068F931E0002141
:101AE000202002F063F92CE00021212002F05EF9B1
:101AF00027E00021242002F059F922E000212520CE
:101B000002F054F91DE00021262002F04FF918E000
:101B10000021272002F04AF913E000212A2002F0D8
:101B200045F90EE000212B2002F040F909E00021E8
:101B3000112002F03BF904E003E09A212A4802F068
:101B4000A0F831BDF8B504000D0064B2260076118E
:101B50000027290049B2200040B200F01CF82348B9
:101B600076B250F8260000680006F8D51F4876B215
:101B700050F82600006907001C4876B250F826008D
:101B8000006830F08000194976B251F826100860DC
:101B9000380080B2F2BD30B440B20200521110F0F1
:101BA0001F0349B28C0014F00C0454F050040F4D84
:101BB00052B255F82250AC6004240C4D52B255F884
:101BC0002250EC60DBB213F01F0454F04004074DC8
:101BD00052B255F822502C6030BC70473C80044013
:101BE0001880044030800440409E00005884FF1F4D
:101BF000F8B5B4480078B4490871B348006864285F
:101C000080F21781B0480079AF49AF4A1268114499
:101C10008871AD480068401CAB490860AA4800685C
:101C20002928C0F2B480A848A7490968084410F8D8
:101C3000230CFF2840F0AB80A348A349096808445F
:101C400010F8220C552840F0A2809F489E49096850
:101C5000084410F8210CAA2840F099809A489A4923
:101C60000968084410F8200C102840F090800020EB
:101C7000954981F86B0094480068293805002C00CC
:101C800091480068401E84420BDA8F4890F86B1030
:101C90008D482044807941188B4880F86B10641C73
:101CA000EEE7894890F86B008749874A126811442B
:101CB0004979884267D100200400092C42DA824821
:101CC00015EB84010844817A5FF080727E4815EB41
:101CD00084031844C37A5FF48030434302FB01312C
:101CE000794815EB84021044027B4FF4807000FBAE
:101CF0000211754815EB84021044407B51FA80F0C4
:101D00000600B6F1004F04D37FF00040801B0700AF
:101D100000E03700380002F0A7F86C4A02EBC4027A
:101D2000C2E90001694800EBC400D0E900010022CB
:101D3000674B02F0ABF8654A02EBC402C2E900014E
:101D4000641CBAE701206349087002200400092CD2
:101D50000BDA5E4800EBC400D0E9000101F05EFF41
:101D60005D4921F81400641CF1E75848D0E90001EE
:101D700001F054FF584948825448D0E9020101F06B
:101D80004DFF5549C88200204F49086054E04E4835
:101D90000068072850DB4C484B490968084410F894
:101DA000010CFF2848D1484847490968405C55283C
:101DB00042D145484449096808444078AA283BD1A3
:101DC00041484149096808448078772834D1002087
:101DD0003D4981F86B003C480068C01F05002C009D
:101DE00039480068401E84420BDA374890F86B107F
:101DF0003548204480794118334880F86B10641CC2
:101E0000EEE7314890F86B002F492F4A12681144D1
:101E10004979884209D10120304908702A482A4965
:101E20000968084400792E49087000202649086096
:101E300002E0002024490860F1BD38B500257FF09C
:101E40000401042002F06BFA6D21042002F067FA0D
:101E50002521042002F063FA6D1F6D352535002021
:101E6000040020001F490978C0B288420DD21E48E4
:101E7000E4B20057010049B2042002F050FA1A48B7
:101E8000E4B2005D4519641CEBE7290049B2042067
:101E900002F045FA31BD89B24FF4807291FBF2F243
:101EA000114BC0B203F8102089B24FF4807291FB3D
:101EB000F2F302FB13120C4BC0B203EB40035A7057
:101EC000704700009496FF1F0C8FFF1F1084FF1FA8
:101ED0000000F0409796FF1F7893FF1F9696FF1F14
:101EE0009596FF1FBE8CFF1FE88EFF1F10F00703A3
:101EF000BE4909680A004FF6FF010A40BC4951EA91
:101F000003210A43B9490A607047012210F01F01FA
:101F10008A40B84940B203005B0941F8232070476A
:101F200010B440B2002808D50A01B34B40B210F0FB
:101F30000F04234403F8042C03E00A01AF4B40B222
:101F40001A5410BC704780B50420FFF7CFFF012161
:101F50005720FFF7E5FF5720FFF7D7FF0221372073
:101F6000FFF7DEFF3720FFF7D0FF00213520FFF716
:101F7000D7FF3520FFF7C9FF03214420FFF7D0FF2B
:101F80004420FFF7C2FF04214720FFF7C9FF472085
:101F9000FFF7BBFF01BD80B500220121642002F0E4
:101FA000EFF9012201216F2002F0EAF901BD80B5AD
:101FB0000121642002F043FA01BD80B500216420B4
:101FC00002F03DFA01BD80B500F06AF800F052F869
:101FD00000F0D8F900F024F8FFF7DDFF01F045FB31
:101FE000FFF7B1FF00F0CAFF02F0AAFA02F04EFBC1
:101FF000FEF712FA02F07EFC00F006F80022012142
:10200000642002F0BDF901BD80B501220021192034
:1020100002F0B6F901BD80B5192002F06CFA02BDDC
:1020200080B501220021802002F0AAF901220021BE
:10203000812002F0A5F901220021822002F0A0F9FE
:1020400001220021832002F09BF90122002160205F
:1020500002F096F901220021612002F091F901229B
:102060000021622002F08CF901220021632002F09D
:1020700087F901BD80B501220121112002F080F90C
:10208000012201219A2002F07BF9012201216F2017
:1020900002F076F901220121402002F071F901BD20
:1020A00080B55749842001F081FE5549852001F013
:1020B0007DFE5349862001F079FE5149872001F0C9
:1020C00075FE4F49882001F071FE01BD80B54D4875
:1020D000D0E900234C48D0E9000102F08BFD47D144
:1020E0004848D0E902234848D0E9020102F082FDC5
:1020F0003ED14448D0E904234348D0E9040102F02A
:1021000079FD35D13F48D0E906233F48D0E90601A3
:1021100002F070FD2CD13B48D0E908233A48D0E9C1
:10212000080102F067FD23D13648D0E90A2336487A
:10213000D0E90A0102F05EFD1AD13248D0E90C2341
:102140003148D0E90C0102F055FD11D12D48D0E9FC
:102150000E232D48D0E90E0102F04CFD08D129488C
:10216000D0E910232848D0E9100102F043FD3CD00B
:10217000FFF71DFF0A2002F068FDFFF71EFF214850
:10218000D0E90001204AC2E900011E48D0E902015D
:102190001D4AC2E902011B48D0E904011A4AC2E9FA
:1021A00004011848D0E90601174AC2E9060115489A
:1021B000D0E90801144AC2E908011248D0E90A012D
:1021C000114AC2E90A010F48D0E90C010E4AC2E9DE
:1021D0000C010C48D0E90E010B4AC2E90E01094876
:1021E000D0E91001084AC2E9100101BD0CED00E080
:1021F0000000FA0500E100E018ED00E000E400E076
:1022000003010A001084FF1F908EFF1F0023190096
:10221000814207DA00231A00642A01DA521CFBE724
:10222000491CF5E77047DFF874030078401EDFF8BB
:102230006C130870DFF8640390F9000001280BDAD2
:10224000DFF85C03DFF85C1391F9001049010844E2
:102250008069DFF8481308707047DFF840030078A2
:10226000401CDFF838130870DFF83403DFF834134C
:1022700091F90010490108448069DFF8201391F9B1
:102280000010884203DA0120DFF81013087070474D
:102290000120DFF8081308700020DFF80C13087025
:1022A000DFF800030078401EDFF8F8120870DFF84E
:1022B000F40290F90000012803DA0120DFF8E412AB
:1022C000087070470020DFF8E01208700120DFF886
:1022D000CC120870DFF8CC020078401CDFF8C41282
:1022E0000870DFF8C00290F90000042803DB032027
:1022F000DFF8B01208707047DFF8AC0290F9000008
:10230000C043DFF8A41208707047F0B5059C069D25
:10231000079E089FDFF888C25FEA471E4CF80E0050
:10232000DFF87CC25FEA471EF444CCF80410DFF803
:1023300070C25FEA471EF444CCF80820DFF860C2A0
:102340005FEA471EF444CCF80C30DFF854C25FEA71
:10235000471EF444CCF81040DFF844C25FEA471E41
:10236000F444CCF81450DFF838C25FEA471EF44456
:10237000CCF81C70DFF828C25FEA471EF444CCF8A2
:102380001860F0BD00B585B00320039000200290D6
:10239000DFF820020190DFF818020090DFF80C321D
:1023A000DFF81422DFF81412DFF81402FFF7ADFF94
:1023B0000120039000200290DFF8F8010190DFF87F
:1023C000F0010090DFF8E431DFF8F821DFF8F811D0
:1023D000DFF8F801FFF799FF022003900520029033
:1023E000DFF8EC010190DFF8C8010090DFF8BC31A4
:1023F000DFF8E021DFF8E011DFF8F004FFF785FFF8
:1024000005B000BD80B5DFF89801DFF8981191F9AB
:10241000001049014058002802D102F097FD08E061
:10242000DFF87C01DFF87C1191F900104901405878
:10243000804702F009FF01BD80B5DFF8B4040068F1
:1024400040061BD5FA20FFF7E1FE862002F053F884
:1024500000280ED1862002F04EF80028FAD0DFF8CE
:102460004001DFF8401191F900104901084440692A
:1024700080474020DFF8781408608DE0DFF87004B2
:102480000068C0051CD5FA20FFF7C0FE882002F0C6
:1024900032F800280ED1882002F02DF80028FAD05A
:1024A000DFF8FC00DFF8FC1091F900104901084446
:1024B000806880474FF48070DFF8341408606BE068
:1024C000DFF82C040068000625D5DFF8DC02B0F93F
:1024D0000000002803D00020DFF8CC120880FA208A
:1024E000FFF794FE872002F006F800280ED187201F
:1024F00002F001F80028FAD0DFF8A400DFF8A410F9
:1025000091F9001049010844006980478020DFF8F4
:10251000E013086040E0DFF8D8030068C0061BD570
:10252000FA20FFF773FE842001F0E5FF00280ED1AA
:10253000842001F0E0FF0028FAD0DFF86400DFF823
:10254000641091F900104901084440688047102048
:10255000DFF89C1308601FE0DFF894030068800632
:102560001AD5FA20FFF752FE852001F0C4FF00289B
:102570000ED1852001F0BFFF0028FAD0DFF820003F
:10258000DFF8201091F9001049010844C068804725
:102590002020DFF85C13086001BD0000C48CFF1F21
:1025A0006095FF1FC38CFF1FA996FF1F912200009B
:1025B000C52200001D2D0000072D0000ED2C00009D
:1025C000192C0000E92B0000BD2B0000712A00002F
:1025D000FD290000F9280000AD27000010B502F029
:1025E000B5FC6DA20021002002F0DEFCDFF85007F0
:1025F000B0F90400020012B20021142002F070FDB4
:10260000DFF840270121402002F0CEFCDFF8380738
:1026100090F9000000280FD560A201216C2002F083
:10262000C3FCDFF8240790F90020524252B2012186
:10263000722002F0EAFC07E0DFF80C0790F90020B6
:102640000121722002F0E1FC55A20121002002F0DC
:10265000ABFCDFF8F80690F9002001212C2002F0F5
:10266000D4FC50A20021402002F09EFCDFF8E006DE
:10267000B0F904200021602002F096FDDFF8D42696
:102680000321102002F090FCDFF8CC26042110205A
:1026900002F08AFCDFF8C406B0F9002004214820CB
:1026A00002F082FDDFF8B8260521102002F07CFC44
:1026B000DFF8B00690F9002005215A2002F0A5FCB1
:1026C000DFF8A4260621102002F06EFCDFF89C063D
:1026D00090F9002006215A2002F097FCDFF890269E
:1026E0000721102002F060FCDFF8280590F9002097
:1026F00007215A2002F089FCDFF83C0690F900001F
:10270000002822D100200400DFF86806DFF86816F0
:1027100091F90010490108448069844238DA601C4C
:10272000DFF8181691F90010884206D171A2E11C59
:10273000C9B2002002F038FC05E0AEA2E11CC9B22B
:10274000002002F031FC641CDEE700200400DFF80A
:102750002406DFF8241691F9001049010844806925
:10276000844215DA601CDFF8D41591F90010884214
:1027700006D1A1A2E11CC9B2002002F015FC05E0BF
:102780009CA2E11CC9B2002002F00EFC641CDEE732
:1027900002F05AFD10BD0000646973002D5F000057
:1027A00061645F00657272008E96FF1F80B5DFF86E
:1027B000880590F90000002802D1FFF734FD76E08B
:1027C000DFF8780590F90000022806D06FD30428BE
:1027D0003DD01FD305284CD069E0DFF8A005DFF815
:1027E000841591F9001030F81100401CDFF88C15A9
:1027F000DFF8702592F9002021F81200DFF87C053F
:10280000DFF8601591F9001030F81100DFF84C1571
:1028100008804CE0DFF84C050078401CDFF84415D8
:102820000870DFF8400590F90000082803DB00205D
:10283000DFF830150870DFF84405DFF8281591F946
:10284000001030F81100DFF8141508802FE0DFF8D1
:102850001C050078401CDFF814150870DFF80C0523
:1028600090F90000042803DB0020DFF80015087051
:102870001DE0DFF8A00390F90000012804D1022038
:10288000DFF89013087003E00120DFF88813087068
:10289000DFF8800390F90000012804D10220DFF85E
:1028A0009414087003E00120DFF888140870DFF842
:1028B000CC04DFF8B01491F9001030F911000128B0
:1028C00008DA5020DFF8B414DFF8982492F90020D9
:1028D00021F81200DFF88C0490F90000002803D5DD
:1028E0000020DFF88014087001BD0000DD25000025
:1028F000A0D004402A20000080B5DFF83C0490F905
:102900000000002802D1FFF7A8FC72E0DFF82C04D9
:1029100090F90000022806D06BD304283DD01FD3C5
:1029200005284CD065E0DFF85404DFF8381491F93D
:10293000001030F81100401EDFF84014DFF82424A6
:1029400092F9002021F81200DFF83004DFF81414A7
:1029500091F9001030F81100DFF80014088048E009
:10296000DFF800040078401EDFF8F8130870DFF885
:10297000F40390F90000002803D50020DFF8E413E9
:102980000870DFF8F803DFF8DC1391F9001030F875
:102990001100DFF8C81308802BE0DFF8D0030078BF
:1029A000401EDFF8C8130870DFF8C00390F900007C
:1029B000002803D50320DFF8B413087019E0954808
:1029C00090F90000012803D102209249087002E02A
:1029D0000120904908708F4890F90000012804D127
:1029E0000220DFF85013087003E00120DFF84413E1
:1029F000087001BD202000002A2A000080B5DFF801
:102A00008003B0F90000002829D1DFF8300390F9E5
:102A10000000012820D101F0A2FEDFF86803FFF7D3
:102A2000F5FB0020DFF8601308700020DFF85C136E
:102A30000870DFF828030088DFF844130880DFF807
:102A400050030068DFF84C130860DFF844030068A7
:102A5000DFF8441308600AE0FFF74EFC07E00120AE
:102A6000DFF8281308700020DFF81413088001BD78
:102A700080B502F06BFADFF824230021002002F079
:102A800093FADFF81C230121002002F08DFADFF811
:102A900014230221002002F087FADFF80C2303211F
:102AA000002002F081FADFF804030078002801D04A
:102AB00098A200E098A20021302002F075FADFF819
:102AC000EC024078002801D092A200E092A20121FD
:102AD000302002F069FADFF8D4028078002801D0B3
:102AE0008CA200E08CA20221302002F05DFADFF817
:102AF000BC02C078002801D086A200E086A2032193
:102B0000302002F051FADFF8A802B0F900000128E5
:102B100002DBDFF8A02201E0DFF89C220021482040
:102B200002F042FADFF88802B0F90200012802DB65
:102B3000DFF8802201E0DFF880220121482002F046
:102B400033FADFF86C02B0F90400012802DBDFF889
:102B5000642201E0DFF860220221482002F024FA1A
:102B6000DFF84C02B0F90600012802DBDFF844224E
:102B700001E0DFF844220321482002F015FADFF8D3
:102B80003C220421002002F00FFADFF8340290F911
:102B90000000020052B20421502002F036FADFF8A1
:102BA00024220521002002F0FFF9DFF81C0290F931
:102BB00000200521502002F028FA01BD824890F93A
:102BC0000000012802DA02207F4908707E48007860
:102BD000401C7D4908707C4890F90000042802DB05
:102BE0000120794908707047774890F90000012862
:102BF00002DA02207449087073480078401E724956
:102C00000870714890F90000012802DA03206E492B
:102C100008707047C08CFF1F80B502F097F95C48C0
:102C2000B0F90000020012B20021002002F0BCFA4C
:102C3000664A0021282002F0B7F96548B0F9000083
:102C4000020012B20221002002F0AEFA6148B0F98F
:102C50000000020012B20221622002F0A5FA5E48D2
:102C6000B0F90000020012B20321002002F09CFA29
:102C70005A48B0F90000020012B20321352002F0D8
:102C800093FA5748B0F90000020012B20321622003
:102C900002F08AFA5348B0F90000020012B204218F
:102CA000002002F081FA5048B0F90000020012B290
:102CB0000421352002F078FA4C48B0F900000200F7
:102CC00012B20421622002F06FFA494A062106205E
:102CD00002F06AF94748B0F90000020012B206217A
:102CE0003C2002F061FA02F0AFFA01BD41480088D1
:102CF000401C404908803F480088002802D16420D9
:102D00003C49088070473B480088401E394908808C
:102D100070470000796573006E6F200035480188A8
:102D20004FF4C87041432D48008891FBF0F03149C1
:102D300008807047C18CFF1FA996FF1FC48CFF1F1E
:102D4000D894FF1FACA20000A696FF1F9C96FF1F01
:102D5000E493FF1FB4A20000BCA200008C96FF1FEA
:102D6000C4A20000A596FF1FCCA20000A896FF1FDA
:102D7000D4A200006095FF1FC38CFF1FFC8BFF1FB8
:102D80008E96FF1F400D03009996FF1FBF8CFF1FFB
:102D9000F095FF1F9893FF1FF495FF1FDCA2000022
:102DA000E4A20000ECA20000F4A200000496FF1FC1
:102DB000FC95FF1FFCA2000004A3000070A200000D
:102DC000B596FF1F7CA20000C68CFF1F9C93FF1FBF
:102DD0006696FF1F6896FF1F6096FF1F6496FF1F91
:102DE0006296FF1F7096FF1F7496FF1F7896FF1F55
:102DF0000CA30000A88CFF1F012210F01F018A40C5
:102E00006F4940B203005B0941F82320704780B549
:102E10006C480078401C6B4908706B480078401C77
:102E200069490870FFF7F7F8684908706848006852
:102E3000009000996748006800F0EAF842F21171CA
:102E400088420BDB614890F90000002806D15F48FA
:102E500000780100C9B2402001F0F1FA5A48007828
:102E6000032806DB00205849087001F0AAFB02F095
:102E700039FA5448007802280EDB002051490870C6
:102E8000FDF7EAFAFDF7CEFEFEF712FAFEF736F985
:102E9000FEF7E6FB02F08DFA01F031FD01F039FE9C
:102EA0004D48006850F001004B49086001BD80B5F5
:102EB00048484088801C4749488046484088B0F5CB
:102EC0007A7F07DB00204349488042480088401C45
:102ED0004049088041480078002823D0012164201F
:102EE00001F0ADFA3E480078401C3D4908703C486E
:102EF00000783C490978884214D301203A49087087
:102F000000203749087000203449087000216420EF
:102F100001F095FA354890F90000012802D101200E
:102F200033490870324890F9000000281FD031481A
:102F30000078401C2F4908702E480078C82816D108
:102F400000202B49087000202A4908702A4890F96F
:102F50000000002808D1254890F90000012803D17D
:102F600001202649087002E0002024490870244806
:102F7000006850F001002249086001BD80B5214879
:102F800000684100002002F0F7FA1F49542002F0C7
:102F9000CCFB4420FFF730FF1A48006841000120B5
:102FA00002F0EAFA1949552002F0BFFB4520FFF76D
:102FB00023FF00200749488000200649088001BD02
:102FC00000E100E0B096FF1FAF96FF1FB196FF1F14
:102FD0009893FF1FF095FF1F0C710340B296FF1FDF
:102FE000AD96FF1FC58CFF1FB396FF1FC18CFF1F3F
:102FF000AC96FF1FAE96FF1FC08CFF1FAB96FF1F46
:103000001C710340C093FF1F0F2E0000AF2E000065
:1030100003B483B0BDF81000BDF80C10884204D290
:10302000049801900398009026E0BDF80C00BDF8CC
:103030001010884204D203980190049800901BE07D
:10304000BDF81200BDF80E10884204D20498019019
:103050000398009010E0BDF80E00BDF812108842F1
:1030600004D2039801900498009005E00020ADF888
:1030700008000020ADF80A00BDF80400BDF80010FB
:1030800088420AD10020ADF80800BDF80210BDF852
:103090000600091AADF80A1025E0BDF80200BDF8D7
:1030A000061088420ED3BDF80210BDF80600091ABA
:1030B000ADF80A10BDF80010BDF80400091AADF80B
:1030C000081010E0BDF80010BDF80400091A481EF1
:1030D000ADF80800BDF8021011F57A71BDF80600D0
:1030E000091AADF80A10BDF808004FF47A72BDF85D
:1030F0000A1002FB001080B205B07047002848BFDC
:10310000404270472DE9F84F8AB007008846160004
:103110005FF000095FF0000A5FF0000B05A81421C2
:1031200002F01AFB6846142102F016FB002004008E
:103130002000C0B2B7F9001000B288420ADAE4B247
:1031400007EB4400B0F95C02414609B2884201DA5B
:10315000641CEDE7E4B2002C03D16420ADF8140048
:1031600053E02000C0B2B7F9001000B2884208D185
:10317000642005A9B7F9002001EB420121F8020CF7
:1031800043E0E4B2002C40D02000C0B2B7F90010F8
:1031900000B2884239DA0FFA88F8E4B207EB44004B
:1031A000B0F95A12B8EB010164204143E4B207EBD5
:1031B0004400B0F95C22E4B207EB4400B0F95A02D3
:1031C000121A91FBF2F005A9E4B221F81400E4B25E
:1031D00007EB4400B0F95C120FFA88F8B1EB080174
:1031E00064204143E4B207EB4400B0F95C22E4B24E
:1031F00007EB4400B0F95A02121A91FBF2F005A94C
:10320000E4B201EB440121F8020C00200500280083
:10321000C0B2B7F9021000B288420ADAEDB207EB89
:103220004500B0F97002310009B2884201DA6D1C24
:10323000EDE7EDB2002D03D16420ADF800004FE0C2
:103240002800C0B2B7F9021000B2884208D168461F
:10325000B7F9021000EB4100642120F8021C3FE0A6
:10326000EDB2002D3CD02800C0B2B7F9021000B278
:10327000884235DA36B2EDB207EB4500B0F96E128E
:10328000711A64204143EDB207EB4500B0F970229A
:10329000EDB207EB4500B0F96E02121A91FBF2F0A5
:1032A0006946EDB221F81500EDB207EB4500B0F923
:1032B000701236B2891B64204143EDB207EB450022
:1032C000B0F97022EDB207EB4500B0F96E02121AA8
:1032D00091FBF2F06946EDB201EB450121F8020CD9
:1032E000002004002000C0B2B7F9001000B28842EC
:1032F0004EDA002005002800C0B2B7F9021000B273
:10330000884243DA05A8E4B230F914006946EDB208
:1033100031F9151010FB01F1E4B2142000FB04F0A8
:103320003844EDB200EB4500B0F9040000FB019910
:1033300005A8E4B230F914006946EDB231F9151070
:1033400010FB01F1E4B2142000FB04F03844EDB2AC
:1033500000EB4500B0F9CC0000FB01AA05A8E4B2DF
:1033600030F914006946EDB231F9151010FB01F186
:10337000E4B2142000FB04F03844EDB200EB450049
:10338000B0F9940100FB01BB6D1CB4E7641CA9E714
:10339000642099FBF0F00A99088064209AFBF0F011
:1033A0001499088064209BFBF0F0159908800BB0FD
:1033B000BDE8F08FC2175040801AB0FA80F10AD0F1
:1033C0008840D1F19D01D20742EAC151020672F153
:1033D000004241EB10207047FF2212EAD05C1DBF73
:1033E00012EAD153944593422BE09C44D30780EAE0
:1033F00001021A4043EA002043EA0121A1FB003008
:10340000C04238BF40007CF17F010BDBFE294ADA65
:103410005B0842EAC15153EA006373F1004C51EB7F
:1034200010207047D1F1080CDCF120012FDB5B0884
:1034300010FA01F10B4320FA0CF073F100415041F6
:10344000704794451CBF02EAD153934280EA0102BF
:1034500002F000421DD0400019D0490017D05BB9DE
:10346000634514D00902B1FA81F39940BCEB030C17
:10347000C00140F00040C1E70002B0FA80FC10FA41
:103480000CF0B3EB0C0CC90141F00041B6E71000A1
:10349000704740000AD0490008D010F1807F94BFE7
:1034A00011F1807F02E042F0FF407047D043704747
:1034B00010B5FF2313EAD0541DBF13EAD1529C422A
:1034C0009A4239E0A41ADA0780EA0103134042EA7B
:1034D000012142EA0020421A3CBF641E01EB420275
:1034E000090AB2FBF1FE01FB1E221202B2FBF1F04F
:1034F00001FB10226EF30F201202B2FBF1FE4EEA26
:1035000000207F3406DDFE2C24DA53EA500050EB15
:10351000C45010BDD4F1020401FB1E2240F08071A2
:10352000192C1DDC21FA04F0C4F12004A140114340
:1035300071F10042584110BD9C421ABF03EAD152BA
:103540009A420FE080EA010E0EF00043400004D0E2
:10355000490016D143F0FF4010BD490008BFD343D6
:10356000180010BD9C4205D1D21AF7D001F00041DD
:10357000484010BD4A0212BF0846484000F00040D3
:1035800010BD4AB90902B1FA81F2914044B1A418C0
:10359000C00140F000409EE7C90141F000415242A5
:1035A0000002B0FA80F4A040141B94E7C0F3C751A6
:1035B0007E390EDDC217D1F1200106DD000240F098
:1035C0000040C840104450407047D04380F0004055
:1035D0007047002070470000014648B1B0FA80F102
:1035E0008840C91CC1F58461090501EBD021400563
:1035F0007047000030B585B07848B0F90600FFF795
:103600007DFD04007648B0F9041076480088091A58
:103610000D0003A8019002A800900DF10A032A00F2
:1036200012B2210009B27048FFF76CFD6F4890F9A3
:103630000000012807D1BDF90A00642190FBF1F0D8
:103640006B4908700FE0694890F90000022807D123
:10365000BDF90800642190FBF1F06549087002E0B3
:1036600064206349087005B030BD80B50122012196
:103670000F2000F085FE01210F2000F0E0FE012266
:1036800000210E2000F07CFE00220021102000F01E
:1036900077FE5849102000F089FB0FF245016720A2
:1036A00002F043F85448006850F4000052490860A2
:1036B00052480068800880005049086050480068FF
:1036C000400840004E4908605FF0FF304D490860F7
:1036D0004D48006850F001004B49086001BD0000F2
:1036E00010B5102000F007FF012803D1022001F0DF
:1036F00079FF53E03A484088394908803848808843
:1037000037494880022001F0AAFF404909684FF478
:103710007A7291FBF2F1B0FBF1F00400A4B24FF425
:10372000AA7044434FF47A7094FBF0F42F4890F958
:103730000000022821D1A4B241F2941084422ADA76
:10374000A4B2332C27DBA4B23C2000FB04F064219C
:1037500090FBF1F1224842881E204243642092FBF4
:10376000F0F041181E4802880A204243642092FB70
:10377000F0F041181A4881800DE01C4890F90000D3
:10378000012808D12248017864222148807802FB70
:10379000010113488180022001F095FF5FF0FF30A6
:1037A0001C49086010BD80B5104890F90000002841
:1037B00002D0FFF71FFF02E064200D490870164891
:1037C00090F90000002802D06420094908700448DC
:1037D00081880820FEF75FFB01BD0000E493FF1F16
:1037E000D894FF1FAC8CFF1F44930000C08CFF1FB8
:1037F000C28CFF1F13010B003C800440007003408B
:1038000028710340207103402C710340C093FF1FB7
:10381000CC93FF1FA0900440A196FF1FB0B581EA92
:10382000030C0CF0004C40F2FF7515EA11541DBF5B
:1038300015EA1357AC42AF4239E0E41923EA455385
:1038400043F48013C90241F0004141EA505EC702CF
:103850001100A7FB020200284FF00000EEFB012040
:103860004FF00001E3FB072118BF42F001024018AE
:1038700000214941E3FB0E01A4F580640F0302D24D
:1038800052004041494154F101046CDD470872F196
:10389000004250F1000051EB0451A1F580115CBFD2
:1038A00041EA0C01B0BD4CEA05510020B0BD05EA6B
:1038B0001357AC4214BFAF4241E050EA410E1CBF67
:1038C00052EA430E02E061460020B0BD24423C446F
:1038D0001BD15FEA070EF6D0090302BF01460020A4
:1038E000AEF1140EB1FA81F7AEEB070401FA07FE50
:1038F0000C37C7F1200100FA07F7C8404EEA000E66
:1039000023EA455343F48013A2E733F00043B3FAAC
:1039100083F704BFB2FA82FE77440B3FE41BB7F192
:10392000200E2FBF02FA0EF3BB40C7F1200E22FA81
:103930000EFE38BF43EA0E03BA40641C82E750EA29
:10394000410E14BF52EA430E6FF000014FF400170E
:1039500017EB430F8ABF194617EB410FB5E74CEA47
:1039600005510020B0BDD4F10104B4F120070FDAF5
:10397000C4F12007520828BF42F0010210FA07F5EF
:1039800001FA07F7E1BF2A43E0403843E1400FE086
:10399000352C98DCC7F1200452EA400220FA07F2E5
:1039A00018BF42F0010231FA07F0A1400A4300219A
:1039B00072F1004250F1000051EB0C01B0BD00006B
:1039C00070B44FF0004591EA030F40F173806B40F3
:1039D000841A71EB030603D2001BB1411219734123
:1039E0004FF4001C1CEB410F34BF7CEB430442E05E
:1039F0000C0DA4EB1356352E4FDC45EAC323DB0A2E
:103A000045EAC121C912B6F120050DDD63FA05F6BC
:103A1000EB4086EA0305124218BF45F00105C018C5
:103A200051F100010CD213E062FA06F5F240554064
:103A3000F3415A40B340F3405A408018594107D3EC
:103A400049085FEA30005FEA350528BF45F0010507
:103A500001F58011420875F1004250F1000041EB80
:103A600004514E0016F5001F70BC38BF704700208F
:103A7000090D090570471CEB410F10D252EA4306AD
:103A80000BD0BCEB410F05D80C0DAB43661E342E9A
:103A9000B6DD02E0AB438018594170BC704770BC82
:103AA0007047000070B44FF0004591EA030F7FF5B6
:103AB0008FAF6B40841A71EB030604D26E40001B7B
:103AC000B141121973414FF4001C1CEB410F34BF7C
:103AD0007CEB430682E00C0DA4EB1356362E7BDC08
:103AE000012E45EAC32341DC43EA525312BFD202FE
:103AF00092025B08240545EAC12141EA5051D2EB0C
:103B0000C020994125D407D1B0FA80F610FA06F109
:103B100062D00020203608E0B1FA81F6B140C6F14B
:103B2000200220FA02F21143B0404FEAF474B4EBE1
:103B3000465434F001064FEA74040AD8D6F500164C
:103B4000760D04F00044F04061FA06F25040F14076
:103B50004840C00A40EA415021F0004128BF5FEAD6
:103B6000500550F1000044EBD12135E0DB0A45EA75
:103B7000C121C90AB6F120050EDD42EA0242120C4B
:103B8000C5F1200603FA06F6EB4042EA06056D424F
:103B9000984161F100010DE062FA06F5F2405540EE
:103BA00063FA06FC82EA0C02F3405A406D429041EF
:103BB00061EB030111F4801F05D1641E620502D080
:103BC0006D004041494121F48011430875F10043E3
:103BD00050F1000041EB045170BC70471CEB410FE9
:103BE00015D223F0004352EA43060BD04FEA4C0CA7
:103BF000BCEB410F04D80C0D661E342EB7DDEBE78D
:103C0000801A994150EA410608BF0021E4E708BF45
:103C10001CEB430F28BF6FF00001DDE7C1F30A532F
:103C200040F2FE329B1A14DDD3F120034FEAE17219
:103C300008DDC90241EA505141F00040D8408018E7
:103C40005040704703F2E13010B1D24382F000409F
:103C50007047002070470000DFF800F0F98CFF1F6C
:103C6000DFF800F0298DFF1FBFF34F8F4748016831
:103C700011F4E0614648014344480160BFF34F8FAF
:103C8000FEE738B504000D00002001F069FD2A00B0
:103C90002100404801F09CFD002001F07EFD4FF422
:103CA0007A7000F0D2FFF2E738B504000D00210071
:103CB00049B2042000F033FB200032BD10B50024CF
:103CC000042001F099FD042001F0CCFD002841D131
:103CD000002001F045FD042001F0C4FD012801D1C0
:103CE00001200400002001F058FD2B4801F070FD78
:103CF0004FF4FA7000F0A9FFE4B2012CEBD10420DC
:103D000001F0B0FD0028E6D1042001F0ABFD002851
:103D100006D1002001F041FD642000F096FFF3E79A
:103D2000042001F09FFD012806D1002001F035FD9F
:103D3000322000F08AFFF3E7184801F049FDFFF751
:103D40008BFF642000F081FF0020FFF789FFFFF761
:103D50008BFFC0E710BD10B511480468012001F0C9
:103D6000FFFC012001F019FD0E48E4B20F2101FB18
:103D700004F100EB0102E4B221000B4801F028FD40
:103D80004FF47A7000F061FFEBE700000CED00E00B
:103D90000400FA0590A00000CCA10000C4A000001F
:103DA00004ED00E06084FF1F2CA0000010B42C4A3A
:103DB00013684FF400740200D2B2520994402343B6
:103DC000274A1360274AC0B203005B1152F8233020
:103DD000012410F01F029440C3F8A040214AC0B251
:103DE00003005B1152F82320C0B210F01F0342F809
:103DF000231010BC704710B4194A13684FF40074B4
:103E00000200D2B2520994402343154A1360154A66
:103E1000C0B203005B1152F82330012410F01F02DE
:103E20009440C3F8A04031F4E0610E4AC0B20300F0
:103E30005B1152F82320C0B210F01F0352F8232068
:103E400012F4E0621143074AC0B203005B1152F85A
:103E50002320C0B210F01F0342F8231010BC70479B
:103E600038800440D08BFF1FC11768B14840401A0A
:103E7000B0FA80F29040D21CC907C2F5846241EAD0
:103E8000025202EBD021400570470000F0B540F22D
:103E9000FF7581EA030C0CF0004C15EA11541DBFAC
:103EA00015EA1357AC42AF42E5E0BC41C1F3130140
:103EB000C3F31303801A994143F4801304D2641EA0
:103EC0004000494180185941C90241EA5051B1FBB3
:103ED000F3F603FB1611A2FB0675D7EBC020A94130
:103EE00002D2761E80185941C90241EA5051B1FBF5
:103EF000F3FE03FB1E11A2FB0E75D7EBC020A941F8
:103F000003D2AEF1010E80185941890241EA905165
:103F1000760546EA8E2EB1FBF3F603FB1611A2FBE3
:103F20000675D7EB8020A94102D2761E8018594130
:103F3000C90241EA50514EEA060EB1FBF3F603FB0B
:103F40001611A2FB0675D7EBC020A94102D2761E3E
:103F500080185941C90241EA5051B1FBF3F703FB04
:103F60001711A2FB0735D3EBC020A94167F1000769
:103F70000CBF004247F0010766F3D5274FEA1E3118
:103F8000B80814F5806412DDBD0775F1004250EBEE
:103F90000E5051EB045111F5801F5CBF41EA0C013A
:103FA000F0BD4CF07F6141F0E0410020F0BDBD0765
:103FB0006D0840EA0E5041F48011D4F10104B4F1CF
:103FC00020060ADAC4F120060200E04001FA06F3F6
:103FD000E1401843B24015430EE0342C13DCC6F127
:103FE000200445EA40056D0820FA06F2154321FA3F
:103FF00006F0A1400D43002175F1004250F1000090
:1040000051EB0C01F0BD00205FEA0C01F0BDCFB90F
:1040100092185B41B3FA83F704BFB2FA82F6BF1974
:104020000B3FB7F120062FBF02FA06F3BB40C7F1E2
:10403000200622FA06F638BF3343BA401CB1E41911
:10404000641E33E77F4231F00041B1FA81F404BFCE
:10405000B0FA80F6A4190B3CB4F120062FBF00FA89
:1040600006F1A140C4F1200620FA06F638BF31431C
:10407000A0403C1B1AE7AC421ABF05EA1357AF42F7
:1040800012E050EA41061CBF52EA4306BFE750EA7D
:104090004107304661461CBF41EA0551F0BD52EA76
:1040A000430C08BFC143F0BD00204FF4001616EBCF
:1040B000410F98BF16EB430F08BF16EB410F24BF0B
:1040C000C14305E016EB430F0CBF61464CEA0551B6
:1040D000F0BD0000012210F01F018A40DFF88412B9
:1040E00040B203005B0941F8232070472DE9F843F3
:1040F00004000D0064B2002C08D0022C2CD018D380
:10410000042C4FD03BD3052C5FD071E0DFF8580270
:10411000006850F48060DFF8501208604FF440717E
:104120006620FFF743FE4FF440716720FFF73EFE25
:104130005EE0DFF83402006850F40060DFF8281217
:1041400008604FF440714320FFF730FE4FF4407198
:104150004420FFF72BFE4BE0DFF80C02006850F420
:104160008050DFF8041208604FF440716320FFF7BD
:104170001DFE4FF440716220FFF718FE38E0DFF8B3
:10418000E801006850F40050DFF8DC1108604FF4DB
:1041900040715020FFF70AFE4FF440715120FFF7A5
:1041A00005FE25E0DFF8C401006850F48060DFF808
:1041B000BC1108604FF440719920FFF7F7FD4FF4F0
:1041C00040719820FFF7F2FD12E0DFF8A0010068CF
:1041D00050F40060DFF8941108604FF440716820DB
:1041E000FFF7E4FD4FF440716920FFF7DFFDFFE7C3
:1041F000DFF87C0164B250F82400C07810F0F300BE
:10420000DFF86C1164B251F82410C870DFF8600157
:1042100064B250F824008078DFF8541164B251F889
:104220002410887064B2002C02D064B2012C07D133
:10423000DFF8400101684FF47A704143894606E097
:10424000DFF8340101684FF47A7041438946280150
:10425000B9FBF0F00600B6B2B6F5005F02DB41F63E
:10426000FF700600B9FBF5F0B6B2B0EB0610070020
:10427000BFB2202F03DBDC214048FFF702FD3C48A2
:1042800064B250F82400007810F0E0008046C6F3D5
:10429000042050EA0800364964B251F8241008702E
:1042A000334864B250F824004670314864B250F884
:1042B0002400807A10F0E000804617F01F0050EADA
:1042C00008002B4964B251F824108872284864B25F
:1042D00050F82400007C50F08800254964B251F861
:1042E00024100874224864B250F82400C07850F0BA
:1042F0000C001F4964B251F82410C870BDE8F18366
:104300001B4A40B252F8202012799206F8D5184A7A
:1043100040B252F8202092F907200A707047144AE0
:1043200040B252F8202012791206F8D5104A40B255
:1043300052F82020D171704710B504000C4864B2C7
:1043400050F82400C07850F02000094964B251F8B8
:104350002410C87064B260002D3040B2FFF7BAFE7E
:1043600010BD000000E100E03480044028800440DB
:10437000E48BFF1FB893FF1FC093FF1F609F0000D7
:1043800070B506000C0015004FF480713000C0B20B
:10439000FFF70CFD64B2002C13D16748F6B2310070
:1043A000491150F821106448F6B23200521150F809
:1043B00022004269012316F01F0083409A434A619C
:1043C0003CE05D48F6B23100491150F821105A48DE
:1043D000F6B23200521150F822004269012316F061
:1043E0001F0083401A434A61EDB2002D13D1524899
:1043F000F6B23100491150F821000168012216F08F
:104400001F00824091434C48F6B23200521150F8DE
:104410002200016012E04848F6B23100491150F81C
:1044200021000168012216F01F008240114342481A
:10443000F6B23200521150F82200016070BD38B55A
:1044400005000C003C48EDB22900491150F821004C
:10445000406915F01F01C840C00703D463213748E5
:10446000FFF70FFCE4B2002C13D13348EDB2290062
:10447000491150F821000168012215F01F00824007
:1044800091432D48EDB22A00521150F822000160EC
:1044900012E02948EDB22900491150F821000168C5
:1044A000012215F01F00824011432348EDB22A007B
:1044B000521150F82200016031BD10B504001E48B1
:1044C000E4B22100491150F82100406914F01F01A5
:1044D000C840C00703D47B211848FFF7D2FB164819
:1044E000E4B22100491150F82110012214F01F00FC
:1044F0008240CA6010BD10B504000F48E4B221002C
:10450000491150F82100406914F01F01C840C0074C
:1045100003D58C210948FFF7B4FB0748E4B221001A
:10452000491150F82100006914F01F04E04010F018
:10453000010010BD00000000748BFF1FD09E000022
:1045400080B5002342F210720021002001F02EFA03
:10455000002342F210720121002001F027FA40F2FC
:104560003663FA220121022001F020FA012001F035
:104570005CFB01BD10B50400002C0AD5624200218D
:10458000002001F0DBFA00220121002001F0D6FA20
:1045900016E0012C0ADB22000121002001F0CEFAF6
:1045A00000220021002001F0C9FA09E000220121C7
:1045B000002001F0C3FA00220021002001F0BEFA21
:1045C00010BD10B5012001F0B3FB0400012001F083
:1045D000C5FB284840882749088026488088254907
:1045E000488024B260422349888024B2604201009E
:1045F00089B20420FDF74FFC10BD10B504001E4821
:1046000090F9000005281DD01B4890F900000428EF
:1046100018D01A48006800F2366004F23661884209
:1046200002DA16480068040004F2366140F236628D
:1046300012480068121A914210DA1048006840428D
:1046400004000BE040F25920844202DB4FF4167064
:10465000040014F5167F01DA0948040004F23661FB
:1046600005204143022091FBF0F20121022001F0DC
:1046700065FA10BD4895FF1FA696FF1F0C8CFF1F03
:10468000A8FDFFFFDFF800F0818DFF1F80B5FFF769
:10469000E3FA01BD8149B1F90010814A11608149F5
:1046A000B1F900107E4A51607F49B1F900107C4A8F
:1046B00091607E4909687A4AD1607D490988784AC3
:1046C00011617C49B1F90010754A51617A49098834
:1046D000734A91617949B1F90010714AD161784901
:1046E000B1F900106E4A11627649B1F900106C4AB6
:1046F00051627549B1F90010694A91627349B1F983
:104700000010674AD1627249B1F90010644A11631E
:104710007049B1F90010624A51630021080008286D
:1047200008DA6D4931F910105D4A02EB800291639D
:10473000401CF4E7694991F90010594A91656849AC
:1047400091F90010564AD165664991F90010544A12
:104750001166654991F90010514A5166704710B5CC
:10476000FF20FFF77DFAFFF795FF002004001A2CC9
:1047700014DA4B4850F82420200080B2810089B21E
:10478000FF20FFF77FFF012806D0FDF710FC210076
:10479000564801F01DF8FAE7641CE8E710BD002157
:1047A00008001A280ADA810011F5FF21B1F900107A
:1047B00009B23B4A42F82010401CF2E73849096828
:1047C000364A118036494968364A11803449896829
:1047D000354A11803249C968344A11603049096943
:1047E000334A11802E494969324A11802C4989691E
:1047F000314A11802A49C969304A11802849096A19
:104800002F4A11802649496A2E4A11802449896A13
:104810002D4A11802249C96A2C4A11802049096B0E
:104820002B4A11801E49496B2A4A11800021080039
:10483000082808DA1A4901EB8001896B264A22F818
:104840001010401CF4E71649896D244A1170144970
:10485000C96D234A1170224991F90010012907D02E
:104860001F4991F90010022902D001211C4A117040
:104870001B4991F90010012903D102211C4A117032
:1048800002E001211A4A11700549096E154A11709A
:104890000349496E144A117070470000AE8CFF1F27
:1048A000E094FF1FB08CFF1FB28CFF1F0C8CFF1F0A
:1048B000AA8CFF1F8C96FF1FA88CFF1FA28CFF1FC6
:1048C000A48CFF1FB68CFF1FB88CFF1FBA8CFF1F74
:1048D000BC8CFF1FB48CFF1FFC8BFF1FA596FF1F16
:1048E000C08CFF1FC68CFF1FA896FF1F7CA1000075
:1048F000C18CFF1F80B52E20FDF71CF801BD70B5DF
:1049000086B000240020040064B20A2C09DA0121D8
:104910002E20FDF717F9694664B221F81400641CD3
:10492000F2E70020040064B2092C20DA684664B281
:1049300030F91400694664B201EB4401B1F9021088
:10494000884212DA684664B230F9140005006846FD
:1049500064B200EB44004088694664B221F8140058
:10496000684664B200EB44004580641CDBE700202D
:10497000ADF812000020040064B2092C20DA684669
:1049800064B200EB4400B0F90200694664B231F948
:104990001410884212DA684664B230F91400050037
:1049A000684664B200EB44004088694664B221F86E
:1049B0001400684664B200EB44004580641CDBE7E9
:1049C0000020ADF812000020040064B20A2C06DAC0
:1049D000684664B230F814008619641CF5E77B4819
:1049E00040887A49088079488088784948807848A2
:1049F000018836B2082096FBF0F0091A73488180CE
:104A0000744840887349088072488088714948809A
:104A1000714801886D488088091A6E48818006B007
:104A200070BD70B586B000260020060076B20A2E52
:104A300009DA01212E20FDF785F8694676B221F8C2
:104A40001600761CF2E70020060076B2092E20DA66
:104A5000684676B230F91600694676B201EB460137
:104A6000B1F90210884212DA684676B230F91600BF
:104A70000400684676B200EB46004088694676B28C
:104A800021F81600684676B200EB46004480761C9A
:104A9000DBE70020ADF812000020060076B2092EF8
:104AA00020DA684676B200EB4600B0F902006946AB
:104AB00076B231F91610884212DA684676B230F9C9
:104AC00016000400684676B200EB4600408869464E
:104AD00076B221F81600684676B200EB46004480B4
:104AE000761CDBE70020ADF812000020060076B24D
:104AF0000A2E06DA684676B230F816004519761C9A
:104B0000F5E72DB2082095FBF0F03149088006B09A
:104B100070BD38B53148B0F900002E49B1F9041024
:104B200010FB01F04FF47A7190FBF1F004002C4877
:104B3000B0F900102748B0F904202648B0F9020067
:104B4000121A51434FF47A7091FBF0F0050025489A
:104B5000016824B204FA85F04118224801601E4819
:104B6000B0F90000002807D11A48B0F90400002865
:104B700002D100201B4908601A48006842F229311E
:104B8000884203DB42F22830164908601548006865
:104B90001549884202DA144812490860134890F90E
:104BA0000000012804D1FDF702FA00200D49086039
:104BB0000F4890F90000012802D10020094908603F
:104BC00008480068FFF7D6FC31BD0000D88EFF1FF3
:104BD000A08CFF1FE08EFF1F5C96FF1FA48CFF1FA1
:104BE000A28CFF1F108CFF1FD8DCFFFFAA96FF1FAF
:104BF0009996FF1F90420CD141EA030C50EA4C0CED
:104C000007D0994205D14FF4001C1CEB410F38BF6F
:104C10008942704710B50400002C15D0B4F1807F94
:104C200003D329210F48FFF72CF800200E49086014
:104C30000E48046000200E49086005200A490860FB
:104C400009480068C003FBD510BD10B50400200062
:104C5000441E002804D007480068FFF7DBFFF6E792
:104C600010BD0000F49D000010E000E014E000E042
:104C700018E000E0B893FF1F38B5040008250121B3
:104C80005320FFF7DCFB00BF00215020FFF7D7FBCC
:104C900000BF2800451EC0B2002815D0200604D54C
:104CA00001215120FFF7CBFB03E000215120FFF74A
:104CB000C6FB01215020FFF7C2FB00BF002150209E
:104CC000FFF7BDFB6400E4E731BD000038B5040028
:104CD000082500215320FFF7B2FB00215020FFF7E9
:104CE000AEFB2800451EC0B2002815D0200604D512
:104CF00001215120FFF7A3FB03E000215120FFF722
:104D00009EFB01215020FFF79AFB00BF002150209D
:104D1000FFF795FB6400E4E731BD38B504000D00F2
:104D2000B5F15000C0B2FFF7D1FF2000C0B20009BA
:104D300050F01000C0B2FFF7C9FF14F00F00FFF7EA
:104D4000C5FF31BD70B5040000200500EDB2082D8F
:104D500017DAB5F15000C0B2FFF7B8FF0120FFF736
:104D6000B5FF1020FFF7B2FF00200600F6B2802E3C
:104D700005DA2000C0B2FFF77FFF761CF6E76D1C56
:104D8000E4E770BD80B2002809D043F226410A0052
:104D900011004A1E89B20029FAD1401EF2E770477D
:104DA00080B500F0AEF801215020FFF748FB00214C
:104DB0005220FFF744FB3220FFF7E4FF012152208D
:104DC000FFF73DFBAE20FFF781FF0020FFF77EFFDE
:104DD0001020FFF77BFF4020FFF778FF8120FFF7CF
:104DE00075FFCF20FFF772FFA120FFF76FFFC820EC
:104DF000FFF76CFFA620FFF769FFA820FFF766FF0B
:104E00003F20FFF763FFD320FFF760FF0020FFF78D
:104E10005DFFD520FFF75AFF8020FFF757FFD9200D
:104E2000FFF754FFF120FFF751FFDA20FFF74EFFA5
:104E30001220FFF74BFFDB20FFF748FF4020FFF772
:104E400045FF2020FFF742FF0220FFF73FFF8D20A4
:104E5000FFF73CFF1420FFF739FFA420FFF736FFD0
:104E6000A620FFF733FFAF20FFF730FF0020FFF74A
:104E700069FF00210020FFF750FF01BD2DE9F84F29
:104E800005000E0017001C00DDF828805FF0000907
:104E9000E4B22000082190FBF1F201FB120000288F
:104EA00005D1E4B2082094FBF0F0834605E0E4B2BB
:104EB000082094FBF0F0401C8346B346200059467E
:104EC000C0B2C9B288421AD35946C9B22800C0B28A
:104ED000FFF723FFAA4650463900C0B2C9B2884244
:104EE0000AD21FFA89F918F80900FFF7C5FE19F16F
:104EF00001091AF1010AEEE71BF1010BDEE7BDE83B
:104F0000F18F80B5012201214D20FFF739FA0122EE
:104F100001214E20FFF734FA012201214F20FFF733
:104F20002FFA012201215020FFF72AFA0122012144
:104F30005120FFF725FA012201215220FFF720FA24
:104F4000012201215320FFF71BFA01BD00210800B7
:104F500080B2B0F5806F06DA0021DFF8282380B236
:104F60001154401CF4E77047F0B4B2F120052C0056
:104F700000252B00DBB2062B13DAC24DC9B27F2607
:104F8000C0B206FB010656FA83F6BC4FE4B25FF0EE
:104F9000060C0CFB04FC6744DBB2FF5CAF555B1CEA
:104FA000E8E7F0BC704700002DE9F04104000D0077
:104FB000160000275FF00008FFB2F05700280CD061
:104FC000FFB2F2572900C9B218EB0400C0B2FFF7D4
:104FD000CBFF18F106087F1CEEE7BDE8F081F8B5BD
:104FE00004000D0016000020070038003100C0B298
:104FF000C9B2884208D220222900C9B23819C0B2E9
:10500000FFF7B2FF7F1CF0E7F1BD70B504000D00A3
:10501000160076B2012E0DD054D3032E1AD011D320
:10502000052E27D01ED3072E34D02BD3092E41D0E6
:1050300038D347E089A22900C9B22000C0B2FFF7E7
:10504000B3FF46E086A22900C9B22000C0B2FFF734
:10505000ABFF3EE083A22900C9B22000C0B2FFF737
:10506000A3FF36E080A22900C9B22000C0B2FFF73A
:105070009BFF2EE07DA22900C9B22000C0B2FFF73D
:1050800093FF26E07AA22900C9B22000C0B2FFF740
:105090008BFF1EE077A22900C9B22000C0B2FFF743
:1050A00083FF16E00BA22900C9B22000C0B2FFF7AF
:1050B0007BFF0EE008A22900C9B22000C0B2FFF7B2
:1050C00073FF06E005A22900C9B22000C0B2FFF7B5
:1050D0006BFF70BD38000000390000003000000098
:1050E00070B504000D00160036B2002E08D562A27D
:1050F0002900C9B22000C0B2FFF756FF36B276428F
:1051000036B242F2107086420FDB05222900C9B286
:105110002000C0B2FFF763FF594A2900C9B2A01DA1
:10512000C0B2FFF741FF00203DE036B24FF47A7085
:1051300096FBF0F252B22900C9B2A01DC0B2FFF72F
:1051400064FF36B24FF47A7096FBF0F100FB116009
:10515000642190FBF1F252B22900C9B214F10C00A3
:10516000C0B2FFF752FF36B2642096FBF0F100FBAD
:1051700011600A2190FBF1F252B22900C9B214F178
:105180001200C0B2FFF741FF36B20A2296FBF2F0DE
:1051900002FB106252B22900C9B214F11800C0B269
:1051A000FFF733FF002070BD70B504000D0016003E
:1051B00036B2002E08D530A22900C9B22000C0B2F4
:1051C000FFF7F2FE36B2764236B2B6F57A7F0FDBE3
:1051D00005222900C9B22000C0B2FFF700FF284A0B
:1051E0002900C9B2A01DC0B2FFF7DEFE00202AE0F0
:1051F00036B2642096FBF0F252B22900C9B2A01D6B
:10520000C0B2FFF702FF36B2642096FBF0F100FB5C
:1052100011600A2190FBF1F252B22900C9B214F1D7
:105220000C00C0B2FFF7F1FE36B20A2296FBF2F094
:1052300002FB106252B22900C9B214F11200C0B2CE
:10524000FFF7E3FE002070BD80B50E4800900723F5
:105250007F2200210020FFF711FE01BD3100000078
:105260003200000033000000340000003500000070
:1052700036000000370000002D0000004C980000B0
:1052800094A20000788FFF1F80B5A048D0E90023CA
:1052900000209F49FEF7C2FAFEF7C0FC9D49088036
:1052A0009A48D0E9022300209949FEF7B7FAFEF7A1
:1052B000B5FC994908809548D0E904230020944919
:1052C000FEF7ACFAFEF7AAFC944908808F48D0E9B3
:1052D000062300208E49FEF7A1FAFEF79FFC9049B5
:1052E000088001BD80B58F4840888E4908808D4870
:1052F00080888C4948808C48B0F900108B48007831
:105300004143642091FBF0F189488088091A85485F
:1053100081808048B0F900108248B0F904208148AB
:10532000B0F90200121A51434FF47A7091FBF0F079
:10533000804908607848B0F900007A49B1F9041052
:1053400010FB01F04FF47A7190FBF1F07A4908609C
:105350007A480188774802687748006882185118AF
:10536000764801807548B0F9000040F26D718842BE
:1053700003DB40F26C70714908807048B0F900009E
:105380006F49884202DA6E486C4908806D4890F98E
:105390000000012804D1FCF70AFE00206A490860D9
:1053A0006A4890F90000012802D100206349088072
:1053B00001BD2DE9F8436648B0F900006549B1F92F
:1053C000061010FB01F04FF47A7190FBF1F007002A
:1053D0006148B0F90000FEF747FD804689465D4808
:1053E000B0F906005B49B1F90410401AFEF73CFD24
:1053F0005FF03332594BFEF711FA04000D005548A7
:10540000B0F904005349B1F90210401AFEF72CFD1F
:10541000534A544BFEF702FA22002B00FEF742FBE0
:1054200004000D004B48B0F902004A49B1F90010E0
:10543000401AFEF719FD4A4A4A4BFEF7EFF92200DF
:105440002B00FEF72FFB42464B46FEF7E7F9002202
:105450002F4BFEF71BFDFEF7E1FB0600424890F9DB
:105460000000032806D0414890F90000032801D12C
:10547000002006003C4890F9000010F1030F07D00F
:105480003A4890F9000010F1030F01D10020060006
:10549000354890F90000042806D1344890F90000FE
:1054A000052801D1002006003148406830490860D5
:1054B0002F4880682E4948602D48C0682C49886074
:1054C000F0192B49C8602B4800682949C9688842EF
:1054D00003DA284800682649C8602548C06825497D
:1054E0000968C84204DA2348006840422049C8607D
:1054F0001F48C068FFF781F81D48C068010089B2E5
:105500000220FCF7C8FCBDE8F18300001084FF1FF7
:1055100000408F40AE8CFF1FB08CFF1FA28CFF1F7E
:10552000A48CFF1FE095FF1F8E96FF1FC28CFF1FEC
:105530004895FF1FE895FF1FEC95FF1F5C96FF1F26
:1055400094F8FFFFAA96FF1F108CFF1F9996FF1F6C
:105550009096FF1FE493FF1F9296FF1F3333E33FA4
:105560009A9999999999C93FA696FF1FA796FF1FE7
:105570005095FF1F0C8CFF1F38B505000C00002C48
:1055800003D122215C48FEF77CFB5C48006850F4A4
:1055900000005A490860002059490860601E5949B6
:1055A0006DB22A01885057486DB229010844C0687D
:1055B00050F0010053496DB22A011144C8605148AE
:1055C0006DB2290108448068400840004D496DB221
:1055D0002A011144886003204A496DB22A0111440E
:1055E000886031BD4549096851F40001434A1160A2
:1055F0004349096889088900414A1160414940B21C
:10560000020111448968490849003E4A40B2030139
:105610001A4491605FF0FF313A4A40B20301D15021
:10562000384940B202011144C96851F00101354ABC
:1056300040B203011A44D160324940B20201114420
:105640008968490849002F4A40B203011A44916011
:1056500001212C4A40B203011A449160704710B4F2
:1056600001005FF0FF33274849B20C012044406835
:105670001B1A1A00234849B20B011844C068C0071E
:105680001AD5204849B20B011844C06850F00100F7
:105690001C4B49B20C012344D8601A4849B20B0193
:1056A0001844806840084000164B49B20C0123445E
:1056B00098605FF0FF3004E012F1010F00D1521E3C
:1056C000100010BC70470F4940B202011144C96874
:1056D00051F001010B4A40B203011A44D16009495B
:1056E00040B202011144896849084900054A40B2A4
:1056F00003011A4491607047189F00003C800440E9
:10570000007003400071034010B504004FF40070B6
:1057100094FBF0F100FB1140002803D01E210B4840
:10572000FEF7AFFA0A48046010BD38B504000D005A
:10573000074800680749884203D030210348FEF734
:10574000A0FA044864B240F8245031BDA89F00007C
:1057500008ED00E00000FF1F002200F01FBB00006A
:1057600010B5040064B2042C07DA012201211748A5
:1057700064B2005DFEF704FE0EE004200400200089
:10578000441E40B2002807D0012201210F4864B214
:10579000005DFEF7F5FDF2E710BD10B5040064B240
:1057A000042C05DA094864B2005DFEF786FE0CE0C1
:1057B000042004002000441E40B2002805D0034805
:1057C00064B2005DFEF779FEF4E710BD1C8CFF1F8C
:1057D0000EB4C0B5024603A800210190009101ABB0
:1057E0000121044878440C3000F0F2FA06BC5DF860
:1057F00010FB00BFA149000010B5040064B2082CE2
:105800000DDA00220021224864B2005DFEF7B8FDE7
:1058100003211F4864B2005DFEF7EDFA14E0082092
:1058200004002000441E40B200280DD000220021B8
:10583000174864B2005DFEF7A3FD0321144864B26B
:10584000005DFEF7D8FAECE710BD10B50400104873
:1058500064B2005DFEF74FFE002801D1002000E099
:10586000012010BD10B50400200040B2FFF7EDFF8D
:1058700000280AD10A20FFF7E8F9200040B2FFF71C
:10588000E4FF002801D1002000E0012010BD00004D
:10589000148CFF1F38B504000D0064B2002C03D037
:1058A000022C66D049D380E0DFF8D804006850F0BD
:1058B0008070DFF8D01408606DB2002D0BD0022D7F
:1058C00015D00ED3042D1ED017D3062D27D020D3EC
:1058D000072D2AD02FE04FF480614120FEF766FAB1
:1058E0002AE04FF480614220FEF760FA24E04FF492
:1058F00080614320FEF75AFA1EE04FF48061442095
:10590000FEF754FA18E04FF440710720FEF74EFA04
:1059100012E04FF480616520FEF748FA0CE04FF486
:1059200080616620FEF742FA06E04FF4806167204E
:10593000FEF73CFA00E038E037E0DFF848040068A2
:1059400050F00070DFF83C1408606DB2002D02D0FA
:10595000012D06D00BE04FF440710C20FEF726FA23
:1059600006E04FF440710D20FEF720FA00E01CE045
:105970001BE0DFF81404006850F08070DFF80814B2
:1059800008606DB2002D02D0012D06D00BE04FF45F
:1059900040710A20FEF70AFA06E04FF44071332006
:1059A000FEF704FA00E000E0FFE731BD2DE9F84F13
:1059B00004000D0016001F0064B2002C0ED064B26B
:1059C000012C02D064B2022C02D16DB2022D05DB93
:1059D00040F28511DFF8B403FEF753F9290049B20C
:1059E000200040B2FFF756FFDFF8A40301684FF430
:1059F0007A70414388464046000CB0FBF6F0814681
:105A0000002082461FFA89F9484650FA0AF0012818
:105A100002DB1AF1010AF5E75FFA8AFABAF1080F18
:105A200005DB4FF4D071DFF86403FEF72AF9404636
:105A300030FA0AF0B0FBF6F081461FFA89F9DFF878
:105A4000540364B240F8249064B2002C03D0022CBA
:105A500019D00CD323E01FFA89F919F1010000FBDA
:105A600007F042F21071B0FBF1F0834617E01FFA25
:105A700089F919F1010000FB07F042F21071B0FB47
:105A8000F1F083460BE01FFA89F919F1010000FBE0
:105A900007F042F21071B0FBF1F08346FFE7DFF848
:105AA000F80264B250F824006DB200EBC500DFF8D4
:105AB000E81264B251F824106DB201EBC501C96857
:105AC00031F00401C160DFF8D00264B250F8240064
:105AD0006DB200EBC5002821C1605FFA8AFA1AF0A6
:105AE000070050F00800DFF8B01264B251F824103B
:105AF00008601FFA89F9DFF8A00264B250F82400A8
:105B0000C0F808900020DFF8901264B251F8241019
:105B1000C864DFF8840264B250F824006DB200EB70
:105B2000C5001FFA8BFBC0F810B00020DFF8681228
:105B300064B251F824104860BDE8F18F2DE9F041BE
:105B400004000D0016005FF0000864B2002C0ED0B7
:105B500064B2012C02D064B2022C02D16DB2022DCB
:105B600005DB4FF4F371DFF82402FEF78AF864B224
:105B7000002C03D0022C17D00BD320E042F211707E
:105B8000864205D34FF4F671DFF80002FEF779F88C
:105B900015E042F21170864205D34FF4F871DFF838
:105BA000EC01FEF76EF80AE042F21170864205D36E
:105BB0004FF4FA71DFF8D401FEF763F8FFE7DFF87E
:105BC000D40164B250F82400804664B2002C03D0A3
:105BD000022C15D00AD31DE018F1010000FB06F0DD
:105BE00042F21071B0FBF1F0070013E018F1010070
:105BF00000FB06F042F21071B0FBF1F0070009E083
:105C000018F1010000FB06F042F21071B0FBF1F058
:105C10000700FFE7DFF8800164B250F824006DB29E
:105C200000EBC5000761BDE8F08110B5040064B267
:105C3000012C07D064B2022C04D040F2DB2153487F
:105C4000FEF71FF864B22000012802D0022811D00C
:105C500021E04C48006850F000704A4908604FF459
:105C6000E0610C20FEF7A2F84FF4E0610D20FEF792
:105C70009DF815E04448006850F080704249086083
:105C80004FF4C0610A20FEF791F84FF4C0610B2079
:105C9000FEF78CF804E040F213313C48FDF7F1FFC9
:105CA0003D4864B250F82400406D50F004003A4979
:105CB00064B251F824104865374864B250F82400A3
:105CC000D0F8800050F00800334964B251F8241035
:105CD000C1F880000020304964B251F82410C86433
:105CE0004FF6FF702C4964B251F8241088602A489E
:105CF00064B250F82400D0F8800050F0010026492A
:105D000064B251F82410C1F88000234864B250F8FE
:105D10002400406D50F001001F4964B251F8241076
:105D2000486500201C4964B251F82410486010BD39
:105D300038B5040064B2012C07D064B2022C04D040
:105D40004FF44C711148FDF79CFF134864B250F8B2
:105D5000240040680500280000B232BD10B50400E0
:105D600064B2012C07D064B2022C04D040F23E3160
:105D70000648FDF786FF0020074964B251F8241059
:105D8000486010BD3C80044030800440889E000084
:105D9000C093FF1FAC93FF1F688BFF1F00B500BFB0
:105DA000130096469446103928BFA0E80C50FAD844
:105DB0005FEA417C28BF0CC048BF40F8042BC907EC
:105DC00028BF20F8022B48BF00F8012B00BD0000BF
:105DD0002DE9F0439FB081462698DFF804898DF8BD
:105DE0003B00174600201E4602910B900FF68834A8
:105DF0004FF0FF350AE017F8011B0298C84700284A
:105E0000029000F09A800B98401C0B90387850B1AB
:105E10002528F0D1002000210590069107900891D7
:105E200009900A9103E00B989AE041F0010117F8FC
:105E3000010F2028F9D023280DD02B2804D02D289D
:105E400006D030280AD07AE041F0020189B2EEE7AC
:105E500041F00401FAE741F00801F7E741F01001D1
:105E6000F4E700200D9009E00D98404505DA00EBBD
:105E7000800302EB4302303A0D927F1C3A78A2F184
:105E800030000A28F0D33A782E2A18BF0C9523D177
